{
  "_format": "hh-sol-artifact-1",
  "contractName": "FantasyBaseball",
  "sourceName": "contracts/FantasyBaseball.sol",
  "abi": [
    {
      "inputs": [
        {
          "internalType": "string",
          "name": "_leaguePw",
          "type": "string"
        }
      ],
      "stateMutability": "payable",
      "type": "constructor"
    },
    {
      "anonymous": false,
      "inputs": [
        {
          "indexed": false,
          "internalType": "string",
          "name": "_teamName",
          "type": "string"
        },
        {
          "indexed": false,
          "internalType": "string",
          "name": "_username",
          "type": "string"
        },
        {
          "indexed": false,
          "internalType": "uint256",
          "name": "_teamId",
          "type": "uint256"
        }
      ],
      "name": "NewTeam",
      "type": "event"
    },
    {
      "anonymous": false,
      "inputs": [
        {
          "indexed": false,
          "internalType": "uint256",
          "name": "_tradeId",
          "type": "uint256"
        },
        {
          "indexed": false,
          "internalType": "uint256",
          "name": "_teamId_1",
          "type": "uint256"
        },
        {
          "indexed": false,
          "internalType": "uint256",
          "name": "_teamId_2",
          "type": "uint256"
        },
        {
          "indexed": false,
          "internalType": "uint256",
          "name": "_playerId_11",
          "type": "uint256"
        },
        {
          "indexed": false,
          "internalType": "uint256",
          "name": "_playerId_12",
          "type": "uint256"
        },
        {
          "indexed": false,
          "internalType": "uint256",
          "name": "_playerId_21",
          "type": "uint256"
        },
        {
          "indexed": false,
          "internalType": "uint256",
          "name": "_playerId_22",
          "type": "uint256"
        },
        {
          "indexed": false,
          "internalType": "uint256",
          "name": "_proposal_timestamp",
          "type": "uint256"
        },
        {
          "indexed": false,
          "internalType": "bool",
          "name": "_isGamble",
          "type": "bool"
        }
      ],
      "name": "NewTradeProposal",
      "type": "event"
    },
    {
      "anonymous": false,
      "inputs": [
        {
          "indexed": false,
          "internalType": "string",
          "name": "_teamName",
          "type": "string"
        },
        {
          "indexed": false,
          "internalType": "string",
          "name": "_username",
          "type": "string"
        },
        {
          "indexed": false,
          "internalType": "address",
          "name": "_ethAddress",
          "type": "address"
        },
        {
          "indexed": false,
          "internalType": "uint256",
          "name": "_teamId",
          "type": "uint256"
        },
        {
          "indexed": false,
          "internalType": "uint256",
          "name": "_playerId",
          "type": "uint256"
        }
      ],
      "name": "PickSubmitted",
      "type": "event"
    },
    {
      "anonymous": false,
      "inputs": [
        {
          "indexed": false,
          "internalType": "uint256",
          "name": "_tradeId",
          "type": "uint256"
        },
        {
          "indexed": false,
          "internalType": "uint256",
          "name": "_teamId_1",
          "type": "uint256"
        },
        {
          "indexed": false,
          "internalType": "uint256",
          "name": "_teamId_2",
          "type": "uint256"
        },
        {
          "indexed": false,
          "internalType": "uint256",
          "name": "_playerId_11",
          "type": "uint256"
        },
        {
          "indexed": false,
          "internalType": "uint256",
          "name": "_playerId_12",
          "type": "uint256"
        },
        {
          "indexed": false,
          "internalType": "uint256",
          "name": "_playerId_21",
          "type": "uint256"
        },
        {
          "indexed": false,
          "internalType": "uint256",
          "name": "_playerId_22",
          "type": "uint256"
        },
        {
          "indexed": false,
          "internalType": "uint256",
          "name": "_accept_timestamp",
          "type": "uint256"
        },
        {
          "indexed": false,
          "internalType": "bool",
          "name": "_isGamble",
          "type": "bool"
        },
        {
          "indexed": false,
          "internalType": "bool",
          "name": "_gamble_team_1",
          "type": "bool"
        },
        {
          "indexed": false,
          "internalType": "bool",
          "name": "_gamble_team_2",
          "type": "bool"
        }
      ],
      "name": "TradeAccepted",
      "type": "event"
    },
    {
      "inputs": [
        {
          "internalType": "uint256",
          "name": "_tradeId",
          "type": "uint256"
        },
        {
          "internalType": "bool",
          "name": "gamble_team1_index",
          "type": "bool"
        },
        {
          "internalType": "bool",
          "name": "gamble_team2_index",
          "type": "bool"
        }
      ],
      "name": "acceptTrade",
      "outputs": [],
      "stateMutability": "nonpayable",
      "type": "function"
    },
    {
      "inputs": [],
      "name": "endTime",
      "outputs": [
        {
          "internalType": "uint256",
          "name": "",
          "type": "uint256"
        }
      ],
      "stateMutability": "view",
      "type": "function"
    },
    {
      "inputs": [
        {
          "internalType": "string",
          "name": "_username",
          "type": "string"
        }
      ],
      "name": "getRoster",
      "outputs": [
        {
          "internalType": "uint256[]",
          "name": "_roster",
          "type": "uint256[]"
        }
      ],
      "stateMutability": "view",
      "type": "function"
    },
    {
      "inputs": [
        {
          "internalType": "string",
          "name": "_leaguePw",
          "type": "string"
        },
        {
          "internalType": "string",
          "name": "_teamName",
          "type": "string"
        },
        {
          "internalType": "string",
          "name": "_username",
          "type": "string"
        },
        {
          "internalType": "address",
          "name": "_ethAddress",
          "type": "address"
        },
        {
          "internalType": "bytes32",
          "name": "_pw",
          "type": "bytes32"
        },
        {
          "internalType": "uint256[]",
          "name": "_roster",
          "type": "uint256[]"
        }
      ],
      "name": "join",
      "outputs": [],
      "stateMutability": "nonpayable",
      "type": "function"
    },
    {
      "inputs": [],
      "name": "leagueHasStarted",
      "outputs": [
        {
          "internalType": "bool",
          "name": "",
          "type": "bool"
        }
      ],
      "stateMutability": "view",
      "type": "function"
    },
    {
      "inputs": [],
      "name": "leagueRoster",
      "outputs": [
        {
          "internalType": "bytes32",
          "name": "",
          "type": "bytes32"
        }
      ],
      "stateMutability": "view",
      "type": "function"
    },
    {
      "inputs": [
        {
          "internalType": "string",
          "name": "_username",
          "type": "string"
        },
        {
          "internalType": "bytes32",
          "name": "_pw",
          "type": "bytes32"
        }
      ],
      "name": "login",
      "outputs": [
        {
          "internalType": "uint256",
          "name": "_teamId",
          "type": "uint256"
        }
      ],
      "stateMutability": "view",
      "type": "function"
    },
    {
      "inputs": [
        {
          "internalType": "uint256",
          "name": "_teamId",
          "type": "uint256"
        }
      ],
      "name": "payWinner",
      "outputs": [],
      "stateMutability": "nonpayable",
      "type": "function"
    },
    {
      "inputs": [],
      "name": "prize",
      "outputs": [
        {
          "internalType": "uint256",
          "name": "",
          "type": "uint256"
        }
      ],
      "stateMutability": "view",
      "type": "function"
    },
    {
      "inputs": [
        {
          "internalType": "uint256",
          "name": "_teamId_1",
          "type": "uint256"
        },
        {
          "internalType": "uint256",
          "name": "_teamId_2",
          "type": "uint256"
        },
        {
          "internalType": "uint256",
          "name": "_playerId_11",
          "type": "uint256"
        },
        {
          "internalType": "uint256",
          "name": "_playerId_12",
          "type": "uint256"
        },
        {
          "internalType": "uint256",
          "name": "_playerId_21",
          "type": "uint256"
        },
        {
          "internalType": "uint256",
          "name": "_playerId_22",
          "type": "uint256"
        },
        {
          "internalType": "bool",
          "name": "_isGamble",
          "type": "bool"
        }
      ],
      "name": "proposeTrade",
      "outputs": [],
      "stateMutability": "nonpayable",
      "type": "function"
    },
    {
      "inputs": [
        {
          "internalType": "bytes32",
          "name": "_cid",
          "type": "bytes32"
        }
      ],
      "name": "startLeague",
      "outputs": [],
      "stateMutability": "nonpayable",
      "type": "function"
    },
    {
      "inputs": [],
      "name": "startTime",
      "outputs": [
        {
          "internalType": "uint256",
          "name": "",
          "type": "uint256"
        }
      ],
      "stateMutability": "view",
      "type": "function"
    },
    {
      "inputs": [
        {
          "internalType": "string",
          "name": "_username",
          "type": "string"
        },
        {
          "internalType": "uint256",
          "name": "_playerId",
          "type": "uint256"
        }
      ],
      "name": "submitPick",
      "outputs": [],
      "stateMutability": "nonpayable",
      "type": "function"
    },
    {
      "inputs": [],
      "name": "totalTeams",
      "outputs": [
        {
          "internalType": "uint256",
          "name": "",
          "type": "uint256"
        }
      ],
      "stateMutability": "view",
      "type": "function"
    },
    {
      "inputs": [],
      "name": "totalTrades",
      "outputs": [
        {
          "internalType": "uint256",
          "name": "",
          "type": "uint256"
        }
      ],
      "stateMutability": "view",
      "type": "function"
    },
    {
      "stateMutability": "payable",
      "type": "receive"
    }
  ],
  "bytecode": "0x60806040526040516200245d3803806200245d8339818101604052810190620000299190620002fb565b336000806101000a81548173ffffffffffffffffffffffffffffffffffffffff021916908373ffffffffffffffffffffffffffffffffffffffff160217905550806001908051906020019062000081929190620000ae565b50346002819055504260038190555062375f0042620000a1919062000385565b6004819055505062000447565b828054620000bc9062000411565b90600052602060002090601f016020900481019282620000e057600085556200012c565b82601f10620000fb57805160ff19168380011785556200012c565b828001600101855582156200012c579182015b828111156200012b5782518255916020019190600101906200010e565b5b5090506200013b91906200013f565b5090565b5b808211156200015a57600081600090555060010162000140565b5090565b6000604051905090565b600080fd5b600080fd5b600080fd5b600080fd5b6000601f19601f8301169050919050565b7f4e487b7100000000000000000000000000000000000000000000000000000000600052604160045260246000fd5b620001c7826200017c565b810181811067ffffffffffffffff82111715620001e957620001e86200018d565b5b80604052505050565b6000620001fe6200015e565b90506200020c8282620001bc565b919050565b600067ffffffffffffffff8211156200022f576200022e6200018d565b5b6200023a826200017c565b9050602081019050919050565b60005b83811015620002675780820151818401526020810190506200024a565b8381111562000277576000848401525b50505050565b6000620002946200028e8462000211565b620001f2565b905082815260208101848484011115620002b357620002b262000177565b5b620002c084828562000247565b509392505050565b600082601f830112620002e057620002df62000172565b5b8151620002f28482602086016200027d565b91505092915050565b60006020828403121562000314576200031362000168565b5b600082015167ffffffffffffffff8111156200033557620003346200016d565b5b6200034384828501620002c8565b91505092915050565b6000819050919050565b7f4e487b7100000000000000000000000000000000000000000000000000000000600052601160045260246000fd5b600062000392826200034c565b91506200039f836200034c565b9250827fffffffffffffffffffffffffffffffffffffffffffffffffffffffffffffffff03821115620003d757620003d662000356565b5b828201905092915050565b7f4e487b7100000000000000000000000000000000000000000000000000000000600052602260045260246000fd5b600060028204905060018216806200042a57607f821691505b60208210811415620004415762000440620003e2565b5b50919050565b61200680620004576000396000f3fe6080604052600436106100ec5760003560e01c806378e979251161008a578063d8d8b0e111610059578063d8d8b0e1146102ed578063e275c99714610316578063e3ac5d2614610341578063f34da6441461036c576100f3565b806378e9792514610233578063a5c0449f1461025e578063b0652c1714610287578063b59068bb146102b0576100f3565b8063346f3497116100c6578063346f34971461018b5780635ec1431e146101b4578063654c6daf146101df5780636b25d8061461020a576100f3565b806304f75406146100f8578063209b391a146101355780633197cbb614610160576100f3565b366100f357005b600080fd5b34801561010457600080fd5b5061011f600480360381019061011a9190611359565b610395565b60405161012c91906113ce565b60405180910390f35b34801561014157600080fd5b5061014a6104a5565b60405161015791906113f8565b60405180910390f35b34801561016c57600080fd5b506101756104ab565b60405161018291906113ce565b60405180910390f35b34801561019757600080fd5b506101b260048036038101906101ad919061143f565b6104b1565b005b3480156101c057600080fd5b506101c96106c8565b6040516101d691906114b6565b60405180910390f35b3480156101eb57600080fd5b506101f46106db565b60405161020191906113ce565b60405180910390f35b34801561021657600080fd5b50610231600480360381019061022c91906114fd565b6106e1565b005b34801561023f57600080fd5b506102486108c3565b60405161025591906113ce565b60405180910390f35b34801561026a57600080fd5b5061028560048036038101906102809190611550565b6108c9565b005b34801561029357600080fd5b506102ae60048036038101906102a9919061157d565b6109af565b005b3480156102bc57600080fd5b506102d760048036038101906102d291906115aa565b610a70565b6040516102e491906116b1565b60405180910390f35b3480156102f957600080fd5b50610314600480360381019061030f91906117f9565b610b5d565b005b34801561032257600080fd5b5061032b610ec9565b60405161033891906113ce565b60405180910390f35b34801561034d57600080fd5b50610356610ecf565b60405161036391906113ce565b60405180910390f35b34801561037857600080fd5b50610393600480360381019061038e91906118f6565b610ed5565b005b60008060009054906101000a900473ffffffffffffffffffffffffffffffffffffffff1673ffffffffffffffffffffffffffffffffffffffff163373ffffffffffffffffffffffffffffffffffffffff16146103f057600080fd5b6008836040516104009190611a12565b908152602001604051809103902060030160009054906101000a900460ff1661042857600080fd5b816040516020016104399190611a4a565b6040516020818303038152906040528051906020012060088460405161045f9190611a12565b9081526020016040518091039020600201541461047b57600080fd5b60088360405161048b9190611a12565b908152602001604051809103902060010154905092915050565b60055481565b60045481565b60008054906101000a900473ffffffffffffffffffffffffffffffffffffffff1673ffffffffffffffffffffffffffffffffffffffff163373ffffffffffffffffffffffffffffffffffffffff161461050957600080fd5b6008826040516105199190611a12565b908152602001604051809103902060030160009054906101000a900460ff1661054157600080fd5b60006008836040516105539190611a12565b9081526020016040518091039020600101549050600060076000838152602001908152602001600020600001805461058a90611a94565b80601f01602080910402602001604051908101604052809291908181526020018280546105b690611a94565b80156106035780601f106105d857610100808354040283529160200191610603565b820191906000526020600020905b8154815290600101906020018083116105e657829003601f168201915b5050505050905060006007600084815260200190815260200160002060020160009054906101000a900473ffffffffffffffffffffffffffffffffffffffff169050600760008481526020019081526020016000206003018490806001815401808255809150506001900390600052602060002001600090919091909150557fd5db6645df68021785bdb21380187615c1fb9e5f10261afc2c109043aad194d582868386886040516106b9959493929190611b1f565b60405180910390a15050505050565b600660009054906101000a900460ff1681565b600a5481565b60008054906101000a900473ffffffffffffffffffffffffffffffffffffffff1673ffffffffffffffffffffffffffffffffffffffff163373ffffffffffffffffffffffffffffffffffffffff161461073957600080fd5b6009600084815260200190815260200160002060070160019054906101000a900460ff161561079d576040517f08c379a000000000000000000000000000000000000000000000000000000000815260040161079490611bcc565b60405180910390fd5b7f32bea50382ff5582f5bb899716284c80224998f8c0dbe233fe9547bd7cf3de30836009600086815260200190815260200160002060010154600960008781526020019081526020016000206002015460096000888152602001908152602001600020600301546009600089815260200190815260200160002060040154600960008a815260200190815260200160002060050154600960008b81526020019081526020016000206006015442600960008d815260200190815260200160002060070160009054906101000a900460ff168b8b6040516108879b9a99989796959493929190611bec565b60405180910390a160016009600085815260200190815260200160002060070160016101000a81548160ff021916908315150217905550505050565b60035481565b60008054906101000a900473ffffffffffffffffffffffffffffffffffffffff1673ffffffffffffffffffffffffffffffffffffffff163373ffffffffffffffffffffffffffffffffffffffff161461092157600080fd5b600454421161092f57600080fd5b6007600082815260200190815260200160002060020160009054906101000a900473ffffffffffffffffffffffffffffffffffffffff1673ffffffffffffffffffffffffffffffffffffffff166108fc479081150290604051600060405180830381858888f193505050501580156109ab573d6000803e3d6000fd5b5050565b60008054906101000a900473ffffffffffffffffffffffffffffffffffffffff1673ffffffffffffffffffffffffffffffffffffffff163373ffffffffffffffffffffffffffffffffffffffff1614610a0757600080fd5b6003544211610a4b576040517f08c379a0000000000000000000000000000000000000000000000000000000008152600401610a4290611ce3565b60405180910390fd5b6001600660006101000a81548160ff0219169083151502179055508060058190555050565b606060008054906101000a900473ffffffffffffffffffffffffffffffffffffffff1673ffffffffffffffffffffffffffffffffffffffff163373ffffffffffffffffffffffffffffffffffffffff1614610aca57600080fd5b6000600883604051610adc9190611a12565b908152602001604051809103902060010154905060076000828152602001908152602001600020600301805480602002602001604051908101604052809291908181526020018280548015610b5057602002820191906000526020600020905b815481526020019060010190808311610b3c575b5050505050915050919050565b60008054906101000a900473ffffffffffffffffffffffffffffffffffffffff1673ffffffffffffffffffffffffffffffffffffffff163373ffffffffffffffffffffffffffffffffffffffff1614610bb557600080fd5b6001604051602001610bc79190611d97565b6040516020818303038152906040528051906020012086604051602001610bee9190611a12565b6040516020818303038152906040528051906020012014610c44576040517f08c379a0000000000000000000000000000000000000000000000000000000008152600401610c3b90611dfa565b60405180910390fd5b600884604051610c549190611a12565b908152602001604051809103902060030160009054906101000a900460ff1615610cb3576040517f08c379a0000000000000000000000000000000000000000000000000000000008152600401610caa90611e66565b60405180910390fd5b6000600a549050600060405180608001604052808881526020018781526020018673ffffffffffffffffffffffffffffffffffffffff1681526020018481525090506000604051806080016040528088815260200184815260200186604051602001610d1f9190611a4a565b60405160208183030381529060405280519060200120815260200160011515815250905081600760008581526020019081526020016000206000820151816000019080519060200190610d739291906110d9565b506020820151816001019080519060200190610d909291906110d9565b5060408201518160020160006101000a81548173ffffffffffffffffffffffffffffffffffffffff021916908373ffffffffffffffffffffffffffffffffffffffff1602179055506060820151816003019080519060200190610df492919061115f565b5090505080600888604051610e099190611a12565b90815260200160405180910390206000820151816000019080519060200190610e339291906110d9565b50602082015181600101556040820151816002015560608201518160030160006101000a81548160ff0219169083151502179055509050507f45b8e3b830a2fe8caf605253b2228f318b8761d9e2825fefd11ceae4d73c1948888885604051610e9e93929190611e86565b60405180910390a1600a6000815480929190610eb990611efa565b9190505550505050505050505050565b600b5481565b60025481565b60008054906101000a900473ffffffffffffffffffffffffffffffffffffffff1673ffffffffffffffffffffffffffffffffffffffff163373ffffffffffffffffffffffffffffffffffffffff1614610f2d57600080fd5b6000600b54905060006040518061016001604052808381526020018a815260200189815260200188815260200187815260200186815260200185815260200184151581526020016000151581526020016000151581526020016000151581525090508060096000848152602001908152602001600020600082015181600001556020820151816001015560408201518160020155606082015181600301556080820151816004015560a0820151816005015560c0820151816006015560e08201518160070160006101000a81548160ff0219169083151502179055506101008201518160070160016101000a81548160ff0219169083151502179055506101208201518160070160026101000a81548160ff0219169083151502179055506101408201518160070160036101000a81548160ff0219169083151502179055509050507fc5d5e53a59f72f160aedd5e04a3172818e79531cc7a87350c40a5bf70bb8431d828a8a8a8a8a8a428b6040516110ae99989796959493929190611f43565b60405180910390a1600b60008154809291906110c990611efa565b9190505550505050505050505050565b8280546110e590611a94565b90600052602060002090601f016020900481019282611107576000855561114e565b82601f1061112057805160ff191683800117855561114e565b8280016001018555821561114e579182015b8281111561114d578251825591602001919060010190611132565b5b50905061115b91906111ac565b5090565b82805482825590600052602060002090810192821561119b579160200282015b8281111561119a57825182559160200191906001019061117f565b5b5090506111a891906111ac565b5090565b5b808211156111c55760008160009055506001016111ad565b5090565b6000604051905090565b600080fd5b600080fd5b600080fd5b600080fd5b6000601f19601f8301169050919050565b7f4e487b7100000000000000000000000000000000000000000000000000000000600052604160045260246000fd5b611230826111e7565b810181811067ffffffffffffffff8211171561124f5761124e6111f8565b5b80604052505050565b60006112626111c9565b905061126e8282611227565b919050565b600067ffffffffffffffff82111561128e5761128d6111f8565b5b611297826111e7565b9050602081019050919050565b82818337600083830152505050565b60006112c66112c184611273565b611258565b9050828152602081018484840111156112e2576112e16111e2565b5b6112ed8482856112a4565b509392505050565b600082601f83011261130a576113096111dd565b5b813561131a8482602086016112b3565b91505092915050565b6000819050919050565b61133681611323565b811461134157600080fd5b50565b6000813590506113538161132d565b92915050565b600080604083850312156113705761136f6111d3565b5b600083013567ffffffffffffffff81111561138e5761138d6111d8565b5b61139a858286016112f5565b92505060206113ab85828601611344565b9150509250929050565b6000819050919050565b6113c8816113b5565b82525050565b60006020820190506113e360008301846113bf565b92915050565b6113f281611323565b82525050565b600060208201905061140d60008301846113e9565b92915050565b61141c816113b5565b811461142757600080fd5b50565b60008135905061143981611413565b92915050565b60008060408385031215611456576114556111d3565b5b600083013567ffffffffffffffff811115611474576114736111d8565b5b611480858286016112f5565b92505060206114918582860161142a565b9150509250929050565b60008115159050919050565b6114b08161149b565b82525050565b60006020820190506114cb60008301846114a7565b92915050565b6114da8161149b565b81146114e557600080fd5b50565b6000813590506114f7816114d1565b92915050565b600080600060608486031215611516576115156111d3565b5b60006115248682870161142a565b9350506020611535868287016114e8565b9250506040611546868287016114e8565b9150509250925092565b600060208284031215611566576115656111d3565b5b60006115748482850161142a565b91505092915050565b600060208284031215611593576115926111d3565b5b60006115a184828501611344565b91505092915050565b6000602082840312156115c0576115bf6111d3565b5b600082013567ffffffffffffffff8111156115de576115dd6111d8565b5b6115ea848285016112f5565b91505092915050565b600081519050919050565b600082825260208201905092915050565b6000819050602082019050919050565b611628816113b5565b82525050565b600061163a838361161f565b60208301905092915050565b6000602082019050919050565b600061165e826115f3565b61166881856115fe565b93506116738361160f565b8060005b838110156116a457815161168b888261162e565b975061169683611646565b925050600181019050611677565b5085935050505092915050565b600060208201905081810360008301526116cb8184611653565b905092915050565b600073ffffffffffffffffffffffffffffffffffffffff82169050919050565b60006116fe826116d3565b9050919050565b61170e816116f3565b811461171957600080fd5b50565b60008135905061172b81611705565b92915050565b600067ffffffffffffffff82111561174c5761174b6111f8565b5b602082029050602081019050919050565b600080fd5b600061177561177084611731565b611258565b905080838252602082019050602084028301858111156117985761179761175d565b5b835b818110156117c157806117ad888261142a565b84526020840193505060208101905061179a565b5050509392505050565b600082601f8301126117e0576117df6111dd565b5b81356117f0848260208601611762565b91505092915050565b60008060008060008060c08789031215611816576118156111d3565b5b600087013567ffffffffffffffff811115611834576118336111d8565b5b61184089828a016112f5565b965050602087013567ffffffffffffffff811115611861576118606111d8565b5b61186d89828a016112f5565b955050604087013567ffffffffffffffff81111561188e5761188d6111d8565b5b61189a89828a016112f5565b94505060606118ab89828a0161171c565b93505060806118bc89828a01611344565b92505060a087013567ffffffffffffffff8111156118dd576118dc6111d8565b5b6118e989828a016117cb565b9150509295509295509295565b600080600080600080600060e0888a031215611915576119146111d3565b5b60006119238a828b0161142a565b97505060206119348a828b0161142a565b96505060406119458a828b0161142a565b95505060606119568a828b0161142a565b94505060806119678a828b0161142a565b93505060a06119788a828b0161142a565b92505060c06119898a828b016114e8565b91505092959891949750929550565b600081519050919050565b600081905092915050565b60005b838110156119cc5780820151818401526020810190506119b1565b838111156119db576000848401525b50505050565b60006119ec82611998565b6119f681856119a3565b9350611a068185602086016119ae565b80840191505092915050565b6000611a1e82846119e1565b915081905092915050565b6000819050919050565b611a44611a3f82611323565b611a29565b82525050565b6000611a568284611a33565b60208201915081905092915050565b7f4e487b7100000000000000000000000000000000000000000000000000000000600052602260045260246000fd5b60006002820490506001821680611aac57607f821691505b60208210811415611ac057611abf611a65565b5b50919050565b600082825260208201905092915050565b6000611ae282611998565b611aec8185611ac6565b9350611afc8185602086016119ae565b611b05816111e7565b840191505092915050565b611b19816116f3565b82525050565b600060a0820190508181036000830152611b398188611ad7565b90508181036020830152611b4d8187611ad7565b9050611b5c6040830186611b10565b611b6960608301856113bf565b611b7660808301846113bf565b9695505050505050565b7f74726164652068617320616c7265616479206265656e20617070726f76656400600082015250565b6000611bb6601f83611ac6565b9150611bc182611b80565b602082019050919050565b60006020820190508181036000830152611be581611ba9565b9050919050565b600061016082019050611c02600083018e6113bf565b611c0f602083018d6113bf565b611c1c604083018c6113bf565b611c29606083018b6113bf565b611c36608083018a6113bf565b611c4360a08301896113bf565b611c5060c08301886113bf565b611c5d60e08301876113bf565b611c6b6101008301866114a7565b611c796101208301856114a7565b611c876101408301846114a7565b9c9b505050505050505050505050565b7f6e6f742079657421000000000000000000000000000000000000000000000000600082015250565b6000611ccd600883611ac6565b9150611cd882611c97565b602082019050919050565b60006020820190508181036000830152611cfc81611cc0565b9050919050565b60008190508160005260206000209050919050565b60008154611d2581611a94565b611d2f81866119a3565b94506001821660008114611d4a5760018114611d5b57611d8e565b60ff19831686528186019350611d8e565b611d6485611d03565b60005b83811015611d8657815481890152600182019150602081019050611d67565b838801955050505b50505092915050565b6000611da38284611d18565b915081905092915050565b7f77726f6e67206c65616775652070617373776f72642100000000000000000000600082015250565b6000611de4601683611ac6565b9150611def82611dae565b602082019050919050565b60006020820190508181036000830152611e1381611dd7565b9050919050565b7f74686973206163636f756e7420616c7265616479206578697374730000000000600082015250565b6000611e50601b83611ac6565b9150611e5b82611e1a565b602082019050919050565b60006020820190508181036000830152611e7f81611e43565b9050919050565b60006060820190508181036000830152611ea08186611ad7565b90508181036020830152611eb48185611ad7565b9050611ec360408301846113bf565b949350505050565b7f4e487b7100000000000000000000000000000000000000000000000000000000600052601160045260246000fd5b6000611f05826113b5565b91507fffffffffffffffffffffffffffffffffffffffffffffffffffffffffffffffff821415611f3857611f37611ecb565b5b600182019050919050565b600061012082019050611f59600083018c6113bf565b611f66602083018b6113bf565b611f73604083018a6113bf565b611f8060608301896113bf565b611f8d60808301886113bf565b611f9a60a08301876113bf565b611fa760c08301866113bf565b611fb460e08301856113bf565b611fc26101008301846114a7565b9a995050505050505050505056fea26469706673582212206aba3dad4cb85ea0ae31f51dde802fee54c771579f14f290f327ef397777065e64736f6c63430008090033",
  "linkReferences": {},
  "deployedLinkReferences": {}
}